:020000040000FA
:06000000020D760204046B
:03002B00020B586D
:03003300020A07B7
:030053000203396C
:100083000203980100F0FF0700080000FFFF0000D3
:100093000704000000030001FF32102700000020C6
:1000A300FD000206FFFF1E6C1600007E1600000016
:1000B30000000000000000F0D8F0D8F0D8F0D8F02D
:1000C300D8F0D8F0D8F0D80F002400160000002490
:1000D3000016000000240016000000240016000093
:1000E300000100170600F0D8F0D8F0D8F0D80000CF
:1000F30000000104010C000204DC8400000002047F
:10010300010C00020277850000000304010C0002C9
:10011300027B850000000404010C0002027F8500BD
:100123000000010400001616000000E8030000FFB1
:10013300FF731688130000E803000064006400B82E
:1001430001A0BB0D00A0BB0D0002020207040101C8
:10015300071E02051E020A0A01010108090801031C
:10016300B80B02803E0102FEFFE8030A050001FF0F
:10017300FF010A011401E00200000001050301016F
:100183000F10FEFF0300030003000300030003003E
:1001930003000300030005000A00140028004F00B9
:1001A3009E000000082C00000000A02B00000000AF
:1001B300FF000000FF0000120D86604F120DC260A9
:1001C30012E7548066F6120C4E7011120E23703B28
:1001D300090909F4F618F618F618F622120C267017
:1001E30015120E3508080860EAE6447FF618768093
:1001F30018E4F618F622120E356016120E2370124A
:10020300E4F608F608F608E65480F6090909181812
:100213001822EAC0E0EBC0E0ECC0E0EDC0E0E68706
:10022300F0A4FBACF008E687F0A42CFCE435F0FA6C
:100233001809E687F0A42C4B60027401CA35F0FC60
:10024300E433FB09E687F0D2F7A42CCB35F0FC1995
:1002530008E687F0A42BCC35F0FBE433FD0819E660
:1002630087F0D2E7A42C4ACB35F0CD3400FC09E665
:1002730087F0D2E7A42DCC35F0FDE433FA0918E674
:1002830087F0D2F7A42CCD35F0CA3400FC08E687FA
:10029300F0D2E7D2F7A42ACC35F07A7E20E70B0A16
:1002A300CB33CBCD33CDCC33CC33CB3350147004E1
:1002B300ED30E00ED2F1E4CD3DCDCC3CCC3B50054E
:1002C300DA05C2F1EB547FC63308E63392F0FBE75D
:1002D3003309E733C39A502D2B70190C0D4C4D7015
:1002E300151806E608C333700D20F10AA2F013F6C1
:1002F300E418800B4024E4F630F002768018F618F8
:10030300F618F68024D33B14501074FFA2F013F6B2
:10031300187680E418F618F6800FA2F013F618E6A4
:100323003303F618ECF618EDF6D0E0FDD0E0FCD080
:10033300E0FBD0E0FA22C0E074F1120681A2AFE440
:1003430033F509D2AF85A708AFA1EF5508FE7410A6
:100353005E60061210AE75A1EF74085E600812109D
:10036300B475A1F78024EFA2E092F0E508A2E08241
:10037300F05017906198E0F89005C9E0C398A2D2B5
:1003830065D0335002E8F075A1FEE509A2E092AF13
:100393007F0202073DC0E074F2120681A2AFE4338C
:1003A300FED2AF9061A4E0F8759B00E59158540824
:1003B30060087591F71211028023E591585410607B
:1003C300087591EF1211088014E591A2E092F0E80C
:1003D300A2E082F05007E0C2E0F012125E9061A347
:1003E300E0F8E5E9585404600E12123475E9FB9005
:1003F3006193E0A2E640F2EEA2E092AF7F01020732
:100403003DC0E074F2120681A2AFE433FED2AF9096
:1004130061A5E0F8E5BF585404600675BFFB1212EE
:100423007680D4C3E498F8E499F91204678026C36C
:10043300E49AFAE49BFBE920E7E9120467E498F8FD
:10044300E499F922C3E498F8E499F9120467E4986B
:10045300F8E499F9C3E49AFAE49BFB22EB20E7CF93
:10046300E920E7E0B90010BB0008E88AF084F8AAA5
:10047300F022E4FBC8FA22EB70227B10C833C8C910
:1004830033C9335007C39AC3DBF280069A50012A5B
:10049300DBEAC833F4C8C933F4C9FA2275F008E4B7
:1004A300C833C8C933C933C99AC99B5004C92AC9B7
:1004B3003BD5F0ECFBC833F4C8E4C9FA22080808BA
:1004C300EAC0E0EBC0E086F0E7A4FA180986F0E79B
:1004D300A42AFA180986F0E7A42AFA180986F0E78D
:1004E300A42AFA1986F0E7A4FBE5F02AFA1908868C
:1004F300F0E7A42BFBE5F03AFA190886F0E7A42B02
:10050300FBE5F03AFA18180986F0E7A4C5F02BFBCF
:10051300E43AFA1908E7C5F0C6A426F6E5F03BFB72
:10052300E43AFA1886F0E7A4F6E5F00826F6E43B89
:1005330008F6E43A08F6D0E0FBD0E0FA22E4CFC0B4
:10054300E0E4CEC0E0E4CDC0E0E4CCC0E075F02050
:10055300E626F608E633F608E633F608E633F61839
:100563001818EC33FCED33FDEE33FEEF33FFC3EC31
:100573009709ED9709EE9709EF97191919400FFF9E
:10058300EC97FC09ED97FD09EE97FE191906D5F0D6
:10059300BFECF709EDF709EEF709EFF7191919D0D1
:1005A300E0FCD0E0FDD0E0FED0E0FF222521C582B3
:1005B300C0E0E52234FFC583C0E0E521C395822472
:1005C300F810AF08858322858221800885832285E0
:1005D3008221D2AFCEF0A3E520F0A37808E608F09D
:1005E300A3DEFAEFF0A3E58124FAF8E608F0A3E628
:1005F30008F0A3E608F0A30808E608F0A3E608F06D
:10060300A315811581D0E0FED0E0F8158115811581
:1006130081E8C0E0EEC0E02212063230F005120697
:10062300778000C6CC18C6CB18C6CA18C6F922E410
:10063300C9C608CAC608CBC6D3330308CCC633928F
:10064300F0C3947F402E94184019C9B90704CACB4C
:10065300CC225025C309CA33CACB33CBCC33CC33DA
:10066300D9F422F4600DC9CCC313CB13CBCA13CA7C
:10067300D9F6CC22E4FCFBFA2214FCFBFA22C0D00C
:100683002521C582C0E0E52234FFC583C0E0E52112
:10069300C3958224F310AF088583228582218008C5
:1006A300858322858221D2AFC8F0A3E9F0A3EAF0C3
:1006B300A3EBF0A37908E709F0A3D8FAECF0A3EDD4
:1006C300F0A3EEF0A3EFF0A3D0E0F0A3D0E0F0A30B
:1006D300D0E0F0A3E520F0A3E5F0F0A322E9799EB2
:1006E300C608CAC608CBC608CCC6C370207996CA4A
:1006F300CBCC7019798ECBCC70137986CC700EF974
:10070300802ACA33CACB33CBCC33CC331930E7F28C
:10071300CCCBCA3350147004EA30E00DE4CA3ACAB1
:10072300CB3BCBCC3CCC500209C3E913C6CC18233A
:1007330013C6CB18C6CA18C6F9228522838521821F
:10074300E0C0E0A3E0F9A3E0FAA3E0FBA37808E0AC
:10075300F608A3DFFAE0FCA3E0FDA3E0FEA3E0FFBD
:10076300A3E0C0E0A3E0C0E0A3E0F5D0A3E0F52060
:10077300A3E0A3F5F010AF088583228582218008CA
:10078300858322858221D2AFD082D083D0E0F8D076
:10079300E032120E0EB900030207D4E4900501788B
:1007A3006D79158002F0A3D8FCD9FA7A6D7B199084
:1007B3000086783479028015E493A3AD82AE838AF0
:1007C300828B83F0A3AA82AB838D828E83D8E9D9EF
:1007D300E77582517583FC7405120ACF7582EA7539
:1007E30083287400120ACFE47375F0108E238F24CC
:1007F300858228858327852182852283E0CEA3E015
:10080300CF852882852783EBC9EAC8EDCBECCAC321
:10081300E833C8E933C9EA33CAEB33CBC3EA9EF5FD
:1008230026EB9FF525B35004AB25AA26EC33CCED7C
:1008330033CDD5F0DAAE23AF2422D083D082ECC0FF
:10084300E0EDC0E0E493A3FCE493A3FDED4C600D65
:10085300120915EC24FFFCED34FFFD80EFE493A3B4
:10086300FCE493A3FDED4C600D1209B2EC24FFFCF4
:10087300ED34FFFD80EFD0E0FDD0E0FCE493A3C0B6
:10088300E0E493C0E022852283852182E0A3FEE099
:10089300A3F5207808E0A3F608DFFAE0A3FFE0A3BE
:1008A300C0E0E0A3C0E0E0A3C0E0E0A3C0E0E0A3B9
:1008B300C0E010AF088582218583228008858221CC
:1008C300858322D2AFD083D082020AD5D083D0824F
:1008D300E9C0E0E493A3C386F0C5F095F0F908E41A
:1008E30093A386F0C5F095F0700BE493A3C39940EE
:1008F30005E9048002A3E475F002A42582F582E5EC
:10090300F03583F583D0E0F9E493A3C0E0E493C02A
:10091300E022C0E0C3E49396087401939618400F55
:10092300E49366700808740193661870007019A345
:10093300A3C3E49396087401939618A3A3400DD020
:10094300E0D0E0D0E0020879A3A3A3A3A3A3D0E05F
:10095300227404800474028000CCC0E0EDC0E0E5A2
:1009630021C39CCCAD2250011D10AF068C218D22DA
:1009730080068C218D22D2AF120A51D0E0FDD0E047
:10098300FC2274028000CCC0E0EDC0E0E521C39CF2
:10099300CCAD2250011D10AF068C218D2280068C18
:1009A300218D22D2AF120A2FD0E0FDD0E0FC22C06D
:1009B300E0C0F088F0E49366700808740193661849
:1009C3007000A8F0A3A3700BD0F0D0E0D0E0D0E08B
:1009D300020879A3A3D0F0D0E022D083D082CCC088
:1009E300E0E493A36006120AB01470FAE493A360E0
:1009F30006120BD11470FAD0E0FCE493A3C0E0E438
:100A030093C0E022C0E074F2120681A2AFE433FE89
:100A1300D2AFE58BA2E05005790412103C758B0030
:100A2300C2E8EEA2E092AF7F0102073DCAC0E0E454
:100A330093A3C582CCC582C583CDC583F0A3C582EC
:100A4300CCC582C583CDC583DAE5D0E0CA22CAC04E
:100A5300E0E0A3C582CCC582C583CDC583F0A3C521
:100A630082CCC582C583CDC583DAE6D0E0CA22C075
:100A730008C3E096F50808A3E096420808A3E096A9
:100A8300420808A3E09645087001D3D008227009F4
:100A9300080808226016181818C6C333C608C633D8
:100AA300C608C633C608C633C6D5E0EA22C0E0E4AA
:100AB30093A3D39C5010E493A3C39C400AD0E0D0EB
:100AC300E0D0E00209FAA3A3A3D0E022C09FF59FE0
:100AD300E473D09F22D083D082C09FE493C0E0749C
:100AE3000193C0E0740293F59F2200C0D02521102A
:100AF300AF08F521500C05228008F521500205228C
:100B0300D2AFD0D0222521F58210AF08F521400CB9
:100B130015228008F52140021522D2AF85228322B7
:100B23007404800A74038006740280027401C0E0B6
:100B3300F404120B08D0E0120DD122BB0102E7220C
:100B4300C082C08389828A83BB0003E08002E4936E
:100B5300D083D08222C0E0C0D0E8C0E0A8A8D2AF42
:100B6300C2C7E8A2E792AFD0E0F8D0D0D0E03260BD
:100B730016080808C6C313C618C613C618C613C674
:100B830018C613C6D5E0EA222521F8E43522F92256
:100B93002521FAE43522FB222521FCE43522FD221E
:100BA300C3E0C696F608A3E0C696F608A3E0C69689
:100BB300F608A3E0C696F622252110AF08F52140DA
:100BC3000C15228008F52140021522D2AF22C0E085
:100BD300E493A36C7009D0E0D0E0D0E00209FAA35B
:100BE300A3D0E022C3E09608A3E09608A3E096080A
:100BF300A3E096A2D265D03322E066701008A3E08A
:100C030066700A08A3E066700408A3E06622E7663C
:100C130070100809E766700A0809E7667004080996
:100C2300E76622191919E70947097009E7270970C7
:100C330005E733F4220922C3E096F008A3E096F017
:100C430008A3E096F008A3E096F022181818E60827
:100C530046087009E626087005E633F4220822C325
:100C6300E4939608740193960874029396087403A8
:100C7300939622C3E697F60809E697F60809E697DE
:100C8300F60809E697F622E026F608A3E036F6080A
:100C9300A3E036F608A3E036F622E493F6087401DF
:100CA30093F608740293F608740393F622700422F1
:100CB300600D18C6C333C608C633C6D5E0F4182280
:100CC300E657F60809E657F60809E657F60809E66F
:100CD30057F622E056F608A3E056F608A3E056F6C8
:100CE30008A3E056F622E627F60809E637F60809D0
:100CF300E637F60809E637F622E026F008A3E036E1
:100D0300F008A3E036F008A3E036F022E056F0083E
:100D1300A3E056F008A3E056F008A3E056F022E65D
:100D230047F60809E647F60809E647F60809E647DD
:100D3300F622E4C396F608E496F608E496F608E489
:100D430096F622C6F4C608C6F4C608C6F4C608C694
:100D5300F4C622C3E7960809E7960809E796080947
:100D6300E79622C3E09608A3E09608A3E09608A3BB
:100D7300E0962275D00075813F752101752205002B
:100D8300020795E6084608C3134608336002E633B4
:100D9300F422600C08C6C313C618C613C6D5E0F404
:100DA30022E0F608A3E0F608A3E0F608A3E0F622A3
:100DB300E6F008A3E6F008A3E6F008A3E6F022E7CE
:100DC300094709C3134709336002E733F422CAC052
:100DD300E0E6F0A308DAFAD0E0FA22E8F0A3E9F0BB
:100DE300A3EAF0A3EBF022E0FAA3E0FBA3E0FCA369
:100DF300E0FD22EAF0A3EBF0A3ECF0A3EDF022E098
:100E0300F8A3E0F9A3E0FAA3E0FB22E5C754F84412
:100E130001F5C77901222521F582E43522F58322E4
:100E2300E72719471947194722C2AF75D69F020012
:100E33000022E62618461846184622120AD8B5AFED
:100E430004120AD861B004120AD8AAB304120AD849
:100E530011B604120AD8BDB604120AD8EDB60412AC
:100E63000AD84DB704120AD8E1B704120AD892B8C7
:100E730004120AD8E3B804120AD827B904120AD80C
:100E8300C1B904120AD831BA04120AD860BA0412DA
:100E93000AD866BB04120AD890BB04120AD8E4BB72
:100EA30004120AD8B8BC04120AD8E6BE04120AD83F
:100EB30094BF04120AD801C204120AD886C20412CB
:100EC3000AD891C504120AD8CDC504120AD826C778
:100ED30004120AD839C704120AD876C704120AD8EA
:100EE3002EF103120AD8AAF103120AD8DDF1031274
:100EF3000AD80BF203120AD849F203120AD886F46D
:100F030003120AD8A5F403120AD8EAF403120AD882
:100F130080F503120AD8CCF503120AD860F603123F
:100F23000AD839F703120AD895F703120AD8F3F748
:100F330003120AD866F803120AD8AAF803120AD8C9
:100F430002F903120AD824F903120AD8B4F90312D6
:100F53000AD845FA03120AD891FA03120AD8BDFA3D
:100F630003120AD8FEFA03120AD894FC03120AD811
:100F730080FD03120AD85BFE03120AD8CCEF0512D8
:100F83000AD8F8EF05120AD818F005120AD83FF06C
:100F930005120AD858F105120AD879F105120AD8B0
:100FA30019F205120AD8A5F205120AD89B87061270
:100FB3000AD8A08706120AD8D38706120AD8E1876F
:100FC30006120AD8FC8706120AD859F505120AD860
:100FD30019F605120AD82BF605120AD89BF6051244
:100FE3000AD8238806120AD8348806120AD84E88EB
:100FF30006120AD8F87F00120AD8EDFF03120AD8A6
:101003006C8506120AD87C8506120AD88E850612CC
:101013000AD8F48506120AD8688206120AD8EC8226
:1010230006120AD8548306120AD86D8406120AD807
:10103300F48406120AD8FD8406120AD824850612FF
:101043000AD85D8806120AD89FCC05120AD8CBCCE1
:1010530005120AD835CF05120AD875CF05120AD85A
:10106300B1CF05120AD8C5CF05120AD8DECF0512B3
:101073000AD8D0D005120AD883D105120AD897D13D
:1010830005120AD8008006120AD8248006120AD84C
:101093003D8006120AD87B8006120AD8AB8006125E
:1010A3000AD8D88006120AD83E8106120AD841818E
:1010B30006120AD84B8106120AD8588106120AD89A
:1010C300B2F205120AD8D2F205120AD811F30512A8
:1010D3000AD82FF305120AD84AF305120AD8B0F337
:1010E30005120AD8BCF305120AD819F405120AD856
:1010F30028F405120AD84CF405120AD80DF5051286
:101103000AD81AF505120AD82BF505120AD8F7855D
:1011130006120AD83F8606120AD86B8606120AD828
:10112300A5D605120AD8F9D705120AD807D8051289
:101133000AD81AD805120AD82FD805120AD844D8C3
:1011430005120AD857D805120AD8D3D805120AD8D7
:1011530038D905120AD8CED905120AD8A7DA05124A
:101163000AD8B7DA05120AD8C6DA05120AD85C7F9C
:1011730000120AD8807F00120AD8A87F00120AD86A
:10118300D07F00120AD8BEF705120AD8E5F7051278
:101193000AD803F805120AD872F805120AD8C5EC62
:1011A30005120AD8DEEC05120AD8EAEC05120AD8B1
:1011B300FEEC05120AD81CED05120AD826ED05121D
:1011C3000AD830ED05120AD843ED05120AD8CDED41
:1011D30005120AD842EE05120AD876EE05120AD88D
:1011E300C4EE05120AD811EF05120AD82CEF051226
:1011F3000AD836EF05120AD85CEF05120AD8C1EFF8
:1012030005120AD835FF03120AD857FF03120AD86A
:10121300E0FF01120AD816F501120AD842F50112AD
:101223000AD85FF501120AD872F501120AD88DF5B2
:1012330001120AD8E7F501120AD815F601120AD8E5
:1012430029FA01120AD887FB01120AD8B9FB011245
:101253000AD81CFC01120AD8A1FD01120AD8C9FD43
:1012630001120AD8DEFD01120AD8EEFD01120AD8D6
:101273002EFE01120AD870FE01120AD880FE011256
:101283000AD8B0FE01120AD8CAFE01120AD8F2FE29
:1012930001120AD80BFF01120AD82FFF01120AD834
:1012A3004DFF01120AD864FF01120AD892FF0112FE
:1012B3000AD8ADFF01120AD8BCFF05120AD86BE2A7
:1012C30005120AD87BE205120AD880E305120AD870
:1012D300B2E305120AD8E2E305120AD805E40512BF
:1012E3000AD81CE405120AD856E405120AD8BBE44E
:1012F30005120AD8FDE405120AD844E505120AD8F6
:1013030071E505120AD89CE505120AD858FE0512A4
:101313000AD878FE05120AD88CFF05120AD88FFF67
:1013230005120AD8628106120AD8988106120AD8D1
:10133300B08106120AD8F28106120AD80282061276
:101343000AD8468206120AD8508206120AD8ADC5B8
:1013530005120AD8F0C505120AD855C605120AD8CF
:1013630074C605120AD816C705120AD81FC7051274
:101373000AD870C705120AD899C705120AD8A6C792
:1013830005120AD818C805120AD8A6C805120AD821
:10139300EBC805120AD824C905120AD889C905124F
:1013A3000AD8B2C905120AD829CA05120AD878CAB6
:1013B30005120AD8B5CA05120AD8EACA05120AD80C
:1013C300FCCA05120AD80ECB05120AD82DCB05127A
:1013D3000AD836CB05120AD8F2CB05120AD835CC77
:1013E30005120AD873CC05120AD8E48606120AD865
:1013F300F4E505120AD834E705120AD857E70512AF
:101403000AD868E705120AD85AE905120AD813FA66
:1014130005120AD849FA05120AD891FA05120AD810
:10142300EAFB05120AD83A6B00120AD8606C001264
:101433000AD89C6C00120AD85A6E00120AD8886E19
:1014430000120AD8F27000120AD8327100120AD8B8
:10145300D47200120AD86A7300120AD8C473001235
:101463000AD8547400120AD8987400120AD8DA748D
:1014730000120AD83F7600120AD8BF7700120AD8A2
:10148300007A00120AD82E7A00120AD85A7A001269
:101493000AD8637A00120AD8C07A00120AD8597B94
:1014A30000120AD8707E00120AD8F67E00120AD8FB
:1014B3006E8606120AD8848606120AD88E8606120B
:1014C3000AD8B4FB04120AD8CAFB04120AD86EFC69
:1014D30004120AD8ADFC04120AD8CAFC04120AD8B2
:1014E300FBFC04120AD848FD04120AD87CFD04123E
:1014F3000AD8B7FD04120AD8ACFF04120AD86D83C8
:1015030006120AD8CC8306120AD80A8406120AD80D
:101513004B8406120AD8008004120AD80C800412E5
:101523000AD86E8004120AD8788004120AD8078178
:1015330004120AD8438104120AD8338204120AD847
:10154300468204120AD8A38204120AD831830412F1
:101553000AD8828304120AD8028404120AD8B685F0
:1015630004120AD88E8604120AD8938804120AD861
:101573008D8904120AD8BF8A04120AD8118D041265
:101583000AD8548E04120AD8F98E04120AD8AC93DE
:1015930004120AD8A29404120AD8389504120AD85D
:1015A3005D9504120AD8FA9504120AD81796041204
:1015B3000AD8379604120AD8A59604120AD8C296F6
:1015C30004120AD8F09604120AD8889804120AD88A
:1015D300A99804120AD84F9904120AD897990412A9
:1015E3000AD8F59904120AD8989A04120AD8FD9ACF
:1015F30004120AD85C9B04120AD8129C04120AD85B
:10160300819C04120AD8BC9C04120AD8309D04128F
:101613000AD8919E04120AD8289F04120AD8C79F99
:1016230004120AD823A204120AD885A204120AD8E3
:1016330012A404120AD840A404120AD863A60412FE
:101643000AD80DA904120AD820AA04120AD80080C5
:1016530005120AD8358205120AD8FB8505120AD865
:10166300788705120AD86B8805120AD8898805126B
:101673000AD88C8805120AD8AC8805120AD8BF8903
:1016830005120AD8878A05120AD8BC8A05120AD815
:101693000A8B05120AD8588B05120AD8B88B051283
:1016A3000AD81F8C05120AD8A58C05120AD82B8DCF
:1016B30005120AD84A8E05120AD8D08E05120AD806
:1016C300FA9205120AD8DCDE05120AD897DF051252
:1016D3000AD8FDDF05120AD81EE005120AD8F9E080
:1016E30005120AD872C904120AD8A1C904120AD869
:1016F30025CA04120AD888CB04120AD872CC041261
:101703000AD82ECE04120AD853CE04120AD8A5CE74
:1017130004120AD837CF04120AD883CF04120AD886
:1017230096CF04120AD8F3CF04120AD8C0D00412F9
:101733000AD832D104120AD869D104120AD8B2D114
:1017430004120AD85AD304120AD839D404120AD874
:1017530087D504120AD86AD604120AD8F6D6041218
:101763000AD82FD704120AD84ED704120AD899D709
:1017730004120AD8B9D704120AD876D804120AD8A0
:1017830099D904120AD8F4D904120AD83ADA0412FD
:101793000AD842DB04120AD8DDDD04120AD803DEBC
:1017A30004120AD87EDE04120AD8A3DE04120AD871
:1017B30017DF04120AD8F5DF04120AD833E0041243
:1017C3000AD8BDE004120AD8A4E104120AD8A7E19A
:1017D30004120AD8B1E104120AD8BBE104120AD8F0
:1017E300D7E104120AD849E204120AD882E20412A9
:1017F3000AD8AEE204120AD8D5E204120AD8F9E2F2
:1018030004120AD834E304120AD8A7E304120AD84C
:10181300DBE304120AD8E5E304120AD821E4041234
:101823000AD856E404120AD875E404120AD8B9FF98
:1018330004120AD8D1FF04120AD8F57F00120AD87D
:101843005FD503120AD882D503120AD8E0D6031251
:101853000AD829D703120AD895D703120AD8F3D77F
:1018630003120AD8F6D703120AD847D803120AD8A4
:10187300BCD803120AD84CD903120AD84FD9031281
:101883000AD8D0D903120AD811DA03120AD836DEDD
:1018930003120AD8E0DF03120AD834E003120AD88D
:1018A300C3E303120AD8FBE403120AD8CFE50312F9
:1018B3000AD839E603120AD863E603120AD81CE8E9
:1018C30003120AD8FFE903120AD8AEEA03120AD8B0
:1018D3004BEB03120AD836EC03120AD89EEE03121E
:1018E3000AD8F8EF03120AD866F003120AD8229333
:1018F30005120AD8CC9305120AD8379405120AD8D0
:10190300529405120AD8D39405120AD82D950512BC
:101913000AD8749505120AD8D39505120AD8E59604
:1019230005120AD80E9A05120AD83E9B05120AD848
:10193300C69B05120AD8CF9D05120AD8819E0512AF
:101943000AD81B9F05120AD8EC9F05120AD8A7A133
:1019530005120AD845A305120AD8D2A305120AD83C
:10196300F8A405120AD804D902120AD867D90212B8
:101973000AD8AFD902120AD8F3D902120AD84EDA1A
:1019830002120AD8ABDA02120AD8E6DA02120AD82D
:1019930068DB02120AD8C2DB02120AD840DD021247
:1019A3000AD8B8DD02120AD8D5DE02120AD8FDDE43
:1019B30002120AD850E002120AD861E002120AD8D1
:1019C30079E002120AD882E102120AD85FE2021217
:1019D3000AD85CE302120AD880E302120AD897E31A
:1019E30002120AD8B8E302120AD8DAE302120AD8BA
:1019F300F9E302120AD8D1E402120AD82BE5021243
:101A03000AD8C2E702120AD81BE802120AD83AE837
:101A130002120AD82AE902120AD860E902120AD885
:101A230093EA02120AD812EB02120AD84EEB021200
:101A33000AD888EB02120AD8F7EB02120AD8ACECE8
:101A430002120AD884EE02120AD891EF02120AD8BF
:101A530009F102120AD8FFF202120AD875F502122E
:101A63000AD84FF702120AD810F802120AD888F8D7
:101A730002120AD89FF802120AD896F902120AD85B
:101A83008AFA02120AD8F9FA02120AD87AE9051276
:101A93000AD82AEB05120AD8E9EB05120AD851EC49
:101AA30005120AD8F7DA05120AD815DB05120AD887
:101AB30059DB05120AD87FDB05120AD8A6DB05120B
:101AC3000AD888C005120AD8D6DB05120AD878DCF2
:101AD30005120AD8BADC05120AD8DDDD05120AD8C8
:101AE30023AF04120AD8EFDD05120AD8F8DD051278
:101AF3000AD802DE05120AD823DE05120AD8ABD1B2
:101B030005120AD8E9D505120AD8F7D505120AD85D
:101B1300FCD505120AD8E5FC05120AD8D4FF021237
:101B23000AD83C8706120AD84C8706120AD875AE23
:101B330004120AD8008002120AD8328002120AD88C
:101B43009E8002120AD8398102120AD8D881021261
:101B53000AD81D8202120AD83F8202120AD858827A
:101B630002120AD87E8202120AD8A08202120AD86E
:101B7300DE8202120AD8228302120AD84483021296
:101B83000AD8A68302120AD86D8402120AD82485C1
:101B930002120AD8968502120AD8688602120AD857
:101BA300B28602120AD8058702120AD86B8702127C
:101BB3000AD8A58702120AD8F78702120AD813880F
:101BC30002120AD83E8802120AD8458A02120AD89B
:101BD300998B02120AD8BB8B02120AD8EF8B02121E
:101BE3000AD8108C02120AD81F8C02120AD82A8C27
:101BF30002120AD8DA8C02120AD8438D02120AD8CA
:101C0300F08D02120AD8288E02120AD8EE8E021222
:101C13000AD8FB8F02120AD8459002120AD8D49030
:101C230002120AD8389102120AD8739102120AD802
:101C3300DF9302120AD8339502120AD86C98021263
:101C43000AD8399902120AD8C79902120AD8F09908
:101C530002120AD8629A02120AD8F69A02120AD813
:101C6300549B02120AD8469C02120AD8689C02129C
:101C73000AD8C49D02120AD8DD9D02120AD8F09D2B
:101C830002120AD85F9E02120AD86B9F02120AD868
:101C9300789F02120AD8819F02120AD859A1021210
:101CA3000AD87FA202120AD88FA202120AD891A3DD
:101CB30002120AD808A402120AD837A402120AD8B8
:101CC3004CA502120AD818A702120AD8F0AA0212C7
:101CD3000AD8FAAA02120AD80EAB02120AD818AB13
:101CE30002120AD822AB02120AD82CAB02120AD86B
:101CF30045AB02120AD84FAB02120AD8C3AB021289
:101D03000AD8CEAB02120AD8F3AB02120AD8FEAB42
:101D130002120AD84CAC02120AD856AC02120AD8E4
:101D230061AC02120AD885AC02120AD8A9AC02121D
:101D33000AD805AD02120AD84BAD02120AD868AD13
:101D430002120AD8E5AD02120AD81CAE02120AD852
:101D53005BAE02120AD8A8AE02120AD82AAF021248
:101D63000AD8C3AF02120AD893B102120AD8F1B14A
:101D730002120AD80DB302120AD833B302120AD8D8
:101D830072B402120AD898B702120AD8D9B9021249
:101D93000AD8B5BB02120AD84BBC02120AD872BECB
:101DA30002120AD81EBF02120AD853BF02120AD85F
:101DB300B8BF02120AD8C2BF02120AD8ECC102127B
:101DC3000AD813C302120AD853C302120AD8F9C39A
:101DD30002120AD88AC502120AD813C702120AD8F5
:101DE30033C702120AD88CC702120AD88EC802124D
:101DF3000AD8D8C802120AD828C902120AD812CAA5
:101E030002120AD887CA02120AD8A1CB02120AD830
:101E13001CCC02120AD821CD02120AD8CCCF02124E
:101E23000AD8EBCF02120AD84CD102120AD80ED329
:101E330002120AD862D302120AD81AD402120AD89A
:101E4300C9D402120AD81FD502120AD8D5D5021254
:101E53000AD86AD602120AD8D6D602120AD810D7DE
:101E630002120AD841D702120AD89DD802120AD800
:101E7300008003120AD8328003120AD86980031241
:101E83000AD8528203120AD8358303120AD88D83E3
:101E930003120AD8C88403120AD8148503120AD875
:101EA3003C8803120AD89E8B03120AD8EB8C0312C8
:101EB3000AD8818D03120AD88D8D03120AD8BF8DDB
:101EC30003120AD8418F03120AD8DC9003120AD8EE
:101ED300849103120AD8C79103120AD82D920312D0
:101EE3000AD84A9203120AD87A9203120AD8AF92F6
:101EF30003120AD87F9303120AD8289403120AD82C
:101F0300AC9603120AD8CC9703120AD8B5980312D9
:101F13000AD8379903120AD8569D03120AD8939DFB
:101F230003120AD8EB9D03120AD81E9E03120AD885
:101F33009F9E03120AD8EC9E03120AD8779F0312BE
:101F43000AD8C99F03120AD8A0A003120AD859A11C
:101F530003120AD8F4A103120AD80DA503120AD852
:101F63002DA603120AD8DAA903120AD8F8AA031273
:101F73000AD8FBAA03120AD82AAB03120AD830AD37
:101F830003120AD809AE03120AD83EAE03120AD8C6
:101F930046AF03120AD8FCAF03120AD89DB103124D
:101FA3000AD8C2B103120AD801B203120AD873B213
:101FB30003120AD857B303120AD824B403120AD857
:101FC3005AB603120AD8CBB603120AD80BB70312B8
:101FD3000AD86CB703120AD82FBB03120AD81EBC47
:101FE30003120AD805BD03120AD87DBD03120AD80D
:101FF3003FBE03120AD83DC003120AD855C00312CC
:102003000AD869C003120AD8A1C003120AD8CFC0E4
:1020130003120AD856C203120AD861C303120AD89C
:10202300B3C303120AD814C403120AD8C6C40312D2
:102033000AD8EDC403120AD8D1C503120AD882C63E
:1020430003120AD871C803120AD8A6C803120AD801
:102053000EC903120AD83DCA03120AD8EFCA0312E3
:102063000AD820CB03120AD838CB03120AD8C7CB1D
:1020730003120AD87BCE03120AD853D003120AD80C
:102083006FD003120AD88BD003120AD859D1031286
:102093000AD83DD503120AD8AF8501120AD8E785BD
:1020A30001120AD8C58A01120AD80B8B01120AD869
:1020B300588C01120AD8C38C01120AD84C8E011213
:1020C3000AD85C9101120AD8779201120AD8899C26
:1020D30001120AD81C9D01120AD86EA001120AD857
:1020E3006AA101120AD8C5A101120AD80FA30112CD
:1020F3000AD8FDA301120AD899A601120AD80DA87D
:1021030001120AD890A801120AD893A801120AD87A
:1021130008A901120AD812A901120AD81FA901128B
:102123000AD84AA901120AD8FAA901120AD8F3AAAD
:1021330001120AD89EAB01120AD8BCAB01120AD80D
:10214300D5AB01120AD8FEAB01120AD820AC01129A
:102153000AD875AE01120AD83AAF01120AD87FAF76
:1021630001120AD8FEAF01120AD8AAB001120AD886
:10217300DCB001120AD830B101120AD86BB10112D6
:102183000AD8B2B101120AD802B201120AD807B2B0
:1021930001120AD85BB201120AD887B201120AD817
:1021A30070B301120AD8C1B301120AD821B40112C3
:1021B3000AD87BB401120AD816B501120AD855B849
:1021C30001120AD867B901120AD8E1BA01120AD872
:1021D300F1BD01120AD88FBE01120AD885C10112BE
:1021E3000AD844C201120AD888C201120AD833C4D9
:1021F30001120AD847C401120AD851C401120AD8DD
:102203005BC401120AD867C401120AD88CC4011234
:102213000AD865C601120AD8BAC601120AD8C4C6BA
:1022230001120AD8CEC601120AD843C701120AD82E
:1022330092C701120AD8A3C801120AD8F0C8011222
:102243000AD8FDC901120AD841CA01120AD8E7CA3D
:1022530001120AD8DACB01120AD8A0CC01120AD88B
:10226300C3CD01120AD8E1CE01120AD8C9CF011297
:102273000AD8E1CF01120AD838D001120AD842D0C5
:1022830001120AD84DD001120AD86BD001120AD814
:10229300B3D001120AD815D101120AD83CD10112C8
:1022A3000AD84ED101120AD8E9D101120AD81ED296
:1022B30001120AD805D301120AD84AD301120AD847
:1022C30030D401120AD857D401120AD8DAD4011231
:1022D3000AD84BD501120AD8D4D601120AD800D88D
:1022E30001120AD8C3D801120AD88BD901120AD80D
:1022F30015DA01120AD83DDB01120AD8DFDB01121D
:102303000AD85ADC01120AD816DD01120AD860DD98
:1023130001120AD8BADD01120AD892DE01120AD8D4
:10232300B5DE01120AD868DF01120AD88ADF01126A
:102333000AD8F3DF01120AD809E201120AD801E32D
:1023430001120AD8C5E301120AD8F7E501120AD827
:1023530041E601120AD891E601120AD8F5E6011204
:102363000AD857E701120AD885E701120AD8A9E764
:1023730001120AD8DEE701120AD80FE801120AD8BF
:1023830042E801120AD892E801120AD8E5E80112DC
:102393000AD80AEA01120AD8AAEB01120AD805ECF4
:1023A30001120AD82EEC01120AD8BBEC01120AD88A
:1023B30029ED01120AD837ED01120AD85BED01129B
:1023C3000AD8B0ED01120AD8CBED01120AD87DEE7E
:1023D30001120AD8B5EE01120AD8F8EE01120AD892
:1023E3005BEF01120AD85DF101120AD887F10112DD
:1023F3000AD87EF201120AD888F301120AD838F4F7
:1024030001120AD837A605120AD86FA605120AD8F0
:1024130090A605120AD8D2A605120AD834A7051227
:102423000AD83EA705120AD84EA705120AD889A7CB
:1024330005120AD869AB05120AD856AD05120AD897
:102443003CAF05120AD8D3AF05120AD875B00512EE
:102453000AD82B3100120AD8D63100120AD8843296
:1024630000120AD88A3300120AD8AA3300120AD8F3
:10247300D33400120AD88E3600120AD8013700125C
:102483000AD8A53700120AD8B13800120AD81C3965
:1024930000120AD8583900120AD89B3900120AD8F8
:1024A300D63900120AD8183A00120AD8AD3A0012E7
:1024B3000AD8293B00120AD8F33B00120AD8D03CB1
:1024C30000120AD8683D00120AD8823D00120AD8C9
:1024D300B23D00120AD8E33D00120AD8A93E001209
:1024E3000AD8B93E00120AD8083F00120AD8153F8D
:1024F30000120AD81E3F00120AD89C3F00120AD8C5
:10250300F83F00120AD8434000120AD85E40001276
:102513000AD8894000120AD8A64000120AD8B2404D
:1025230000120AD8494200120AD8624200120AD89D
:10253300E74200120AD8FA4200120AD819430012DD
:102543000AD8BD4300120AD83E4500120AD8F14604
:1025530000120AD8874700120AD88A4700120AD8FD
:10256300FA4700120AD8184800120AD8AF480012D6
:102573000AD8F74800120AD8FA4800120AD8C04904
:1025830000120AD82D4A00120AD8534A00120AD858
:10259300DE4A00120AD8FC4A00120AD8424B001243
:1025A3000AD8F64B00120AD8404C00120AD86F4CD6
:1025B30000120AD8CC4C00120AD8014D00120AD8D6
:1025C3002D4D00120AD83B4D00120AD8884D001237
:1025D3000AD8F84D00120AD8414E00120AD88D4E7F
:1025E30000120AD8B94E00120AD8C44E00120AD8F3
:1025F300E24E00120AD8CD4F00120AD8D74F00126C
:102603000AD8125000120AD8225000120AD8765063
:1026130000120AD88A5000120AD8B95100120AD8F7
:10262300CE5100120AD85C5200120AD8A1520012ED
:102633000AD82D5300120AD8385300120AD87A54F4
:1026430000120AD8955400120AD8E15400120AD88D
:10265300505500120AD8895500120AD8A355001202
:102663000AD8035600120AD8A25600120AD8ED5609
:1026730000120AD8BD5900120AD86F5A00120AD89C
:10268300DC5A00120AD81C5D00120AD8345D00120D
:102693000AD8375D00120AD8435D00120AD8575D85
:1026A30000120AD85F5D00120AD8925D00120AD8A0
:1026B300955E00120AD8225F00120AD8925F0012B8
:1026C3000AD8146000120AD8D56000120AD8F46040
:1026D30000120AD8956100120AD8F26100120AD8D2
:1026E300F56100120AD8696200120AD8B8630012B1
:1026F3000AD8BE6400120AD8496500120AD8646673
:1027030000120AD82C6700120AD85D6700120AD893
:10271300806700120AD8896700120AD8B8670012C6
:102723000AD8486800120AD8FE6800120AD87369EA
:1027330000120AD81A6A00120AD88F6A00120AD83D
:10274300C66A00120AD8046B00120AD8DDAE04125E
:102753000AD8A6BF05120AD896BD05120AD8A4BC8A
:1027630005120AD842BC05120AD8A0FB04120AD8E3
:1027730096FB04120AD82BFB04120AD85FF9041241
:102783000AD81DF904120AD829F804120AD8E6DD7A
:1027930005120AD8A8AE04120AD8FDF704120AD803
:1027A300B4F704120AD860AE04120AD835AE041284
:1027B3000AD8F5F604120AD8E1F304120AD896F1FE
:1027C30004120AD866F104120AD816F104120AD8C0
:1027D300B0F004120AD86FF004120AD8A1EF041261
:1027E3000AD83BEF04120AD8DAEE04120AD87AEEBA
:1027F30004120AD818ED04120AD8ACEC04120AD851
:1028030000EC04120AD8FBEB04120AD8E4EB04121E
:102813000AD8AFEB04120AD867C505120AD841E8F3
:1028230004120AD833C505120AD8DCC405120AD823
:1028330065C305120AD8B7C205120AD8ADC205127C
:102843000AD846C205120AD83EE804120AD8FCE7A1
:1028530004120AD8E9E704120AD82BC205120AD8CF
:10286300DEE704120AD8ADE704120AD8A5E504127C
:102873000AD818E504120AD89CFB02120AD8D4E439
:1028830004120AD888C105120AD8A8E404120AD887
:10289300D2BB05120AD8A5BB05120AD872BB051212
:1028A3000AD84ABB05120AD8EBBA05120AD8CBBA22
:1028B30005120AD896BA05120AD842B705120AD8E1
:1028C3002AB505120AD814B305120AD894B2051210
:1028D3000AD840B205120AD8F4B105120AD84CB18D
:1028E30005120AD8BEDB0500000080FB0000228F22
:1028F3000001005D1A870001005B1A350004002106
:102903001A25000200251A26000200271A270002B2
:1029130000291A28000100331A29000100341A84FF
:102923000004000117860001007B192A000100350D
:102933001A2B000100361A2C0001003B1A2D000847
:10294300000F172E0001003C1A2F0001003D1A3022
:102953000001003E1A310001003F1A320001001746
:102963001733000100181734000100401A36000124
:1029730000191738000100411A390001003A1A837F
:10298300000200591A630001002417640001003794
:102993001A65000100381A6D00010025177100083F
:1029A30000071766000100581A43000100491A4442
:1029B3000002004A1A450001004C1A460002004D6D
:1029C3001A470008001C17480001004F1A4B00016A
:1029D30000501A040001005C1AA1000100601A37BC
:1029E3000001005F1A880001005E1A3C0001001A12
:1029F300173D000100421A49000200511A67000105
:102A03000026174D000200531A4E000100551A4FBD
:102A1300000200561A3E000100481A51000100440A
:102A23001A52000100451A53000100471A540001CD
:102A3300001B1700000000000000013636010100F2
:102A43000102010001030100010401060605020061
:102A530000070100340801000F090401010D010002
:102A6300FF0E08000017020000190100FF1A010001
:102A7300011B0100FE1C0100081D0200001F0100D4
:102A83000120010001210200002301000F240200A4
:102A9300002601000127010008280200FF2A010087
:102AA300072B0102402C0100002D0100012E010023
:102AB300012F0100FF30010B1D310800003A010016
:102AC300083B01000F3C0100013D0100FF3E0400F3
:102AD3000042040000460400004A0400004E0400C3
:102AE3000052040000560400005A040000000000D5
:102AF300002001A985000001002001AB8500000230
:102B0300002001AD85000003002001AA8500000418
:102B13000042015884000005004201AF8400000612
:102B23000042018884000007003001AE85000000E8
:102B3300404201F3840000FDFF2101A7850A000143
:102B4300022123B1190A0007002301D8190A004002
:102B5300021023CB190A0001041023CC190A000523
:102B6300042023CD190A0006042023CE19020400F1
:102B7300002901D019020421022923B319020422D6
:102B8300022923B519020420021023B719020425D0
:102B9300021023B819060000001001E615010371A5
:102BA30003010301030103010301032203020301E0
:102BB30003100300030003000300030003000300EA
:102BC3000342030003240306030003000304031268
:102BD3000325032303250323030403040300030042
:102BE30003000344030003000323030003650321DD
:102BF3000035038103000305030003000300030002
:102C030003250323030300710030016000110070EA
:102C13000031022003500480001000610000001402
:102C2300006300730072006200430000001300069B
:102C3300000000000004001200000000000000007B
:102C43000004000400370037003C02440000000089
:102C53000000000000650000003500810000000551
:102C630000000083000000030271023001600211C2
:102C73000270020102020202028002100261023AA1
:102C830000410063027302720262024302000213F4
:102C930002380000020002040212020002000200D5
:102CA30002000204020402370037003C024402001F
:102CB30002390000020002650200023502810200AF
:102CC300020502820283020002030471040204600B
:102CD30004110470040204020401040204100461D8
:102CE30004000414046304730472046204430400C0
:102CF3000413040604000400040404120400040082
:102D030004000400045104640000040004000444AB
:102D13000400040004000400046504000435048175
:102D2300046400050400048304000401017101012B
:102D330001010111010101310101010101800110B2
:102D43000161013B001400630173017201620143DD
:102D5300010001130106013D0135000401120100C8
:102D63000100010001000104010401330133013CAE
:102D73000144013201360000010001650100013503
:102D83000081010001050182018301000136000178
:102D930000060000000F000000000000000000001B
:102DA30000000003FFFF00000403FFFF0000FFFF1C
:102DB3000FF4010005C4040320000100000B000010
:102DC30000000000000003010F00000000000000ED
:102DD30000000000000000000000000000000000F0
:102DE3000000000000000000000000061636160C6C
:102DF30016341512163C16121648161816341512E8
:102E0300163C161E16341500000000241634150057
:102E13000000002A16341530163415000000000097
:102E2300000000000000000000000000000000009F
:102E3300000000000000000000000000000000008F
:102E4300000000000000001300B8181F00BE181F88
:102E530080C41800001E1901001E19020064180224
:102E6300805E1803006A1804007018048076180541
:102E7300007C180600881831009A183300A0183413
:102E830000A6183600AC18FFFF00000A000000027D
:102E930000000004000000080000001000000020F3
:102EA300000000400000008000000000010000005E
:102EB30002000000040000000800000010000000F1
:102EC30020000000400000020400002901D619027E
:102ED3000421022923C519020422022923C7190246
:102EE3000420021023C919020425021023CA19065B
:102EF3000000001001E915020400002901D21902A3
:102F03000421022923B919020422022923BB19022D
:102F13000420021023BD19020425021023BE190642
:102F23000000001001E715020400002901D4190272
:102F33000421022923BF19020422022923C11902F1
:102F43000420021023C319020425021023C4190606
:102F53000000001001E81501D42006042108FE201A
:102F63000B222110221E02DA2005F22007E0200C9A
:102F7300BC200DC82064181CFF00000300030004DC
:102F830000080010001F003E007B00F600EC01D794
:102F930003AF075D0FB91E713D000007ECFDFDFD9A
:102FA300ECDCDCCCBCACAC9C9C8C7C7C6C6C5C5C4E
:102FB3005C4C4C3C3C2C2C1C1C00160F00000B15CD
:102FC3000B020002220F3300000E0FD0D1D2D3D454
:102FD300D5D6D7D8D9DADBDCDDDEDF000000000090
:102FE30000000000000000000000005A696742650D
:102FF30065416C6C69616E63653039150AF4D4C040
:10300300A5958272636155504930301718192130E4
:103013001B1D1F30303016181920231A1C1E3000B8
:103023000119161816161823030000034D4C4651B8
:10303300181A250502003C40423A3F3F392F4730DA
:103043000C0E020B040B0A0708000F020402010115
:1030530001010902E803000000BE040AF6FB9E2FEB
:10306300E803FE2F0100030000007F000E000000B4
:10307300040403100A0C10080C28050316060606A0
:10308300021E1E09033C0CFF0508150000FF040087
:103093000908E4F0A3F0A3F0A322123095F02290E4
:1030A300186D1246A11224BE221230B022E0F50898
:1030B300E4F509F50AF50B22E824FBF582E934FF70
:1030C300F58322E82411F582E439F583E022F583C0
:1030D3001230D722E0F508A3E0F5092212273A744B
:1030E30004120AED7F080208897401F09005E1E0FB
:1030F300640F227409120AED7F04020889EA24137B
:10310300FAE43FFB122668E9227905122674740655
:1031130022A3A3E024F5C3941322122746900601A9
:1031230012665F7A147B0022C082C08390184C74AD
:10313300B2F0A37424F0A374C4F0A37424F0901821
:1031430050749AF0A37424F0A37494F0A37424F03D
:10315300A374D0F0A37424F0A374D6F0A37424F062
:10316300A374CAF0A37424F0A37482F0A37424F0AC
:1031730090185C74A6F0A37424F0A374ACF0A37449
:1031830024F0A374A0F0A37424F0A374DCF0A3745C
:1031930024F090186D125070600990186D12469DBE
:1031A30012142090186A1249B77408125D0CA3F028
:1031B300901916F090186FF07C0BFDF97A707B185C
:1031C30012135A7C0B7D0079007A7B7B1812135AF9
:1031D30002481174F71205AF74F7120BBBEAFEEB4A
:1031E300FF1232697405124AD57403F01233801248
:1031F3004AB72430FCE43FFD8C82123261123275EF
:103203006008123A8E74FFF0A3F0EE242EE43F1C04
:103213001CFD8C82F583A3E0C0E08A828B83124776
:1032230069D0E012327588828983124FA42403F097
:10323300EE123A98120E197403F09005F61209581B
:103243007402120B9B123662120AEDE9F50870073D
:10325300EEFAEFFB12254EA9087409023AA7F5838B
:10326300E08882898322EA12326E221251B33FF53B
:103273008322125F8C124AC3E8F0A3E9126263E06F
:103283002274F01205AFEAFEEBFF8C0C8D0D890B57
:10329300123380F583124ACB7410120E19E0F5082D
:1032A300A3123263F0E824FFF582E9123674E508CD
:1032B300F0E824FEF582E9123674E50BF09005FB85
:1032C300E0C0E0E824FDF582E9123674D0E0F09026
:1032D30005FAE0C0E0E824FCF582E9123674D0E098
:1032E300F07412120E191230D31230BBE509F0E854
:1032F30024FAF8E934FFF98882F583E508F0EE242F
:1033030004FCE43FFD88088A828B83E0F50E8C82FF
:103313008D83E0250EC39508125F8C1248F1850C4E
:1033230082850D83A3A3A3A3A3A3A3A3E064037034
:1033330009EE124AA5F0A3E480031236791236810E
:103343007409F0750870750918750A007808120B6E
:1033530027125A56120AED7508FF7509FF780812ED
:103363000B2BAC0CAD0D123662120AEDE9F50870A9
:1033730007EEFAEFFB12254EA9080230E7EA240212
:10338300FAE43FFB8A8222C082C08390188CE0C398
:103393009408400474078001E08A828B83F03333FE
:1033A3003354F8F902481174F01205AF8A088B09F7
:1033B300890A8C0E8D0F750C00A2AFE433F50BC296
:1033C300AF90188680451234AC503D1234C6640366
:1033D3007036E50824F9F508E50934FFF5098E820E
:1033E3008F83A3A3E02405FCA3E03400FDAA08AB6C
:1033F30009121510E50824FFF508E50934FFF5095E
:103403007410250CF50C150A12389B126A14E50A80
:103413006004EE4F70B0E50BA2E092AFA2AFE433CD
:10342300F50BC2AF901886803E124F7D8882F583DC
:103433001241F1850882850983F08A8289831234D7
:10344300BDA3A3E0C0E0E50824FFF582E509123639
:1034530074D0E0F0E50824FEF508E50934FFF5092A
:10346300050C150A12389B1236EF60211234C6641C
:103473000270F11234ACEE40B0124BECA2E550E412
:10348300850E82850F837401F0E50A70D7E50BA2E0
:10349300E092AF850882850983E50CF0E50824FFF7
:1034A300FAE50934FFFB0230E71234B2A2E622EE5A
:1034B3002411F582E43FF583E0221234C122124F36
:1034C300C2A3228E828F83A3A312476D1256992221
:1034D30074F01205AF74F3120BBB7403120E19E9E7
:1034E300F07402120E19EAF08B0B85218285228378
:1034F300E4F004120B93122464E9F89005E0E02948
:103503002437F508FA7B0012136C8A0C8B0DAE0C72
:10351300AF0DEA4F7003023659EA2402F50EE43F79
:10352300F50FA808EA28F8E43BF9850E82850F8396
:10353300123FED9005E0E0F9FAC3E49AFA95E0FB57
:10354300850E82850F83E02AF50CA3E03BF50D90F1
:1035530005DE1230D3750A007808120B27E9FC7DCB
:1035630000AA0CAB0D124A27120AEDAC21AD22744E
:1035730001120E19E0F9E50C24FFFAE50D34FFFB07
:1035830012246A8A828B83E4F0E50BC454F0F99029
:103593001917E0C4333354C0F89005DAE0A2E0E42D
:1035A3003313134849440FC0E0EA24FFF582EB12BA
:1035B3003674D0E0F0EA24FEF50CEB34FFF50D741D
:1035C30003120E19E0F87402120E19E0C454F04805
:1035D300850C82850D83F0A80C850E82850F8312DE
:1035E3005CD92AC3988E828F83A3A3A3A3F0850EED
:1035F30082850F83E8F0A3E50DF012367912368148
:10360300E4F0740C120E19E4F075087B7509187850
:1036130008120B27125A56120AED8521828522833E
:10362300E06009EE240E124BEE4408F0122656E930
:10363300F9E4F508F5097808120B2B7406120B9BB5
:10364300123664120AEDE97006EEFAEFFB800BEE18
:10365300FAEFFB1213727A007B00740D0230E479E7
:1036630003EEFAEFFB12266E740222EE24FFF582BC
:10367300EF34FFF58322EE12326EE4F0A322F01250
:10368300368622EE1259793FF5832274F21205AF82
:103693008A0C8B0DA2AFE433F50AC2AF750800752F
:1036A3000900901886802C1238AB5024850C828533
:1036B3000D83A3A3125A698E828F83A3A312469DFF
:1036C30012265CE9600A1238A6C2E6F08E088F095A
:1036D30012389B1236EF70CFE508450960061237A2
:1036E30088D2E6F0E50AA2E092AF800DE0FEA3E007
:1036F300FFEE4F227402120AED7F0602088974F06E
:103703001205AF8A0E8B0F8C0C8D0D750A00A2AFBC
:10371300E433F50BC2AF7E007F009018868010AEB5
:1037230008AF09123780124BECD2E7F012467B1236
:10373300468F6034123788A2E750F18508828509E5
:1037430083A3A3120958AC0CAD0DAA0EAB0F12261E
:10375300627402120AEDE960D3EE4F60C2123B229B
:10376300700612379AD2E4F0E50BA2E092AFEE4F67
:103773006006122548750A01A90A0230E71234B21D
:10378300D2E4F0EE22E5081259933509F583E022DD
:10379300AA82AB831215108E828F83A3A312476D67
:1037A300E02274F21205AF74FE120BBB750C0075A8
:1037B3000D00852182852283E4F0A3F0A2AF33F5C7
:1037C3000AC2AF901886126A14802BEE24FBF5828E
:1037D300EF34FF1230D1780C120B2B123889120AF6
:1037E300EDEEFCEFFDAA21AB22121390AE08AF0958
:1037F30090188CE014F0EE4F602B1238AB501DEE96
:10380300240BF8E43FF98882F583E024FFF0A3E07A
:1038130034FFF08882898312507060AF8E0C8F0D55
:1038230012389B80A1E50AA2E092AF90188CE06069
:103833002C9005E1E0640F6006901916E0701E7A83
:10384300647B181227469085A31209547A647B1867
:10385300124899120AED800574F012477AAA21AB37
:10386300221213968A088B09AE08AF09EA4F601338
:103873001224761238A6A2E28E828F83A350D974C3
:10388300E980D70236F7EEFCEFFD7A867B18121338
:10389300A27402228E0A8F0BEE24FBF582EF34FF13
:1038A300F58322EE1234B3221234B2A2E72274F764
:1038B3001205AFEAFEEBFF1224761247661207EAFF
:1038C300E964019005FD700AE02401F8A3E03400E7
:1038D30080031246ECF9124DEE1248F190188CE079
:1038E300701F9005E1E0640F70177A647B1812274C
:1038F300469085A31209547A647B18124899120AD8
:10390300EDA8A8C2AF90188CE004F0E8A2E7800409
:10391300E508A2E092AF024CFC74F71205AFEAFE91
:10392300EBFFEA123952F0122476EEFCEFFD7A86B1
:103933007B1812139CA8A8C2AF90188C1242409017
:1039430005E1E0640F7005790812260E024CFC12A3
:1039530034B3C2E42274F71205AF74EA120BBBEA64
:10396300FEEBFF9005DAE0602A85218285228374CD
:1039730001F0120E19E4123A0D120E19123793C008
:10398300E0740A120E19D0E0125CF9740B120E19CE
:10399300124F597416023AA774F71205AFEAFEEBF9
:1039A300FF122458E9F974DC69601E74DD6960193B
:1039B30074E469601474F369600F74DE69600A74F7
:1039C300DF69600574DB697007EEFAEFFB122614FA
:1039D300024CFC74F71205AF74EB120BBBEAFEEB5F
:1039E300FF8521828522837406123A0D120E19AACD
:1039F30082AB83121510EE2408FCE43FFD740A1217
:103A03000E19124F597415023AA7F0EA2413FCE475
:103A13003FFD74022274F71205AF74F7120BBBEA71
:103A2300FEEBFFEA2430124BEE605DEA123A981285
:103A33000E197403F09005F6120958123A8E120902
:103A430058900609E0F97404120B9BEEFAEFFB128F
:103A5300245E7404120AEDE9F974DC69602374DDF1
:103A630069601E74E469601974F369601474DE6933
:103A7300600F74DF69600A74E869600574DB69705C
:103A830007EEFAEFFB12261402325CEE242EF582C7
:103A9300E43FF58322125E6AAA21AB221215107449
:103AA30008227403120AED024CFC74F21205AF8A69
:103AB3000C8B0D750A00750B007508E7A2AFE43394
:103AC300F509C2AF90188680031238971236EF605B
:103AD300251238AB50F3123B2270EEEE2432123C27
:103AE300B9E06870E4780A120B2B123889120AEDD8
:103AF30090188CE014F0E509A2E092AFEE4F60134A
:103B0300EEFAEFFB12247679F0EEFAEFFB122614AD
:103B1300750800A908AA0CAB0D1226140236FC1274
:103B23003686E064012274F41205AF74F7120BBBFE
:103B3300EAFEEBFF8A82F583A3E064F37003023BA2
:103B4300C78A828B83A3E064DF60798A828B83A335
:103B5300E064E8606F8A828B83A3E064DB606512B4
:103B630024B8E9F5087055EE240E124BEE604D12A1
:103B73003BD160487408120E19123BE012095875C4
:103B830008FF7509FF7808120B2B8E828F83A3A37E
:103B9300A3A3A3A3A3A3E0F97404120B9B12245EB3
:103BA3007404120AEDE9F50874F369600F74DF69B0
:103BB300600A74E869600574DB69700F8E828F8315
:103BC300A3E508F0EEFAEFFB1224C40230F6EE246C
:103BD3000FFAE43FFB79091224FAEA4B227402122A
:103BE300545F74FFF0A3123BED22124FADA3A32247
:103BF30074F11205AFEAFEEBFF7508008A82F583C4
:103C0300A3A3A3A3A3A312311440037508E88A82D4
:103C13008B83A3A3A3A3A3A3A3A3A3A3E0C39410EE
:103C230040057508E880138A828B83A3A3A3A3A30B
:103C3300A3A3A3A3A3E0640F600B9018F3E05408BD
:103C430070037508E8EA240B123CB9A3A3A3A3A34A
:103C5300A3A3A3E0C398500DEA240B124BEE640F09
:103C630060037508E89005FAE0F47003A3E0F470CC
:103C7300037508EC7A237B0012141A8B0BA90B90A3
:103C8300186D123CC860278E828F83A3A3A982AAD2
:103C930083890C8A0D750E00780C120B277C237D0B
:103CA3000090186DE0FA124A27120AED8003750896
:103CB3001AA908025A51F582E43FF583E0F88A8293
:103CC3008B83A3A322EAF0A3EBF0EA492274F51253
:103CD30005AFEAFEEBFF8A82F583A3A3A3A3A3A305
:103CE300A3A3E09005E1123D60E09005FCF0EA2417
:103CF3000B124BEE9005DC123D60A3E0901917F018
:103D0300F91211B0901917E0600BEE2404124BE086
:103D13002406123D569019161230EC60047401808B
:103D230002740090186F1263A4120B277C0B7D00A2
:103D33007A707B18124A27120AEDEE2418F508E46C
:103D43003FF5097808120B277C0B7D007A7B7B18E3
:103D5300024A14FAE43FFB79E11211982212638EAE
:103D6300A3A3A3A32274F71205AFEAFEEBFF8A8293
:103D7300F583A3E070031230A2125F15024CFC74AA
:103D8300F71205AFEAFEEBFF90186D12507060104A
:103D930090186D12469D90186DE4F0A3F012142054
:103DA3008E828F837408124781121AFE024CFC74B0
:103DB300F61205AF901916E0601090186FE0700AC4
:103DC300123DD0EA4B600312254E02600F9005DCD2
:103DD300E0FB9005FCE0FA9005E1E0F91224702283
:103DE30074F41205AF74E7120BBBEAFEEBFF750B1D
:103DF300018A82F583A3A3A3A3A3A3A3E0A2E25012
:103E030069EA242BF582E43F125A67EA2413FAE4A1
:103E13003FFB12247CE970529084F1E06401700549
:103E2300750B008045123EA2120B277C0B7D00749C
:103E330011120B93124A27120AED122656E9FA744D
:103E43000E120B8B880889097808120B2B75083022
:103E53007509007808120B2BEE125CC21209581276
:103E63005E5C790112310E120AED8521828522836F
:103E73007410F0125E5C7402120E19AA82AB8312E4
:103E83001504EE242B126655740B120E191248F109
:103E9300740D120E19E50B1260CE74190230F8EE90
:103EA30024081263AC22C082C083901917E0600318
:103EB3001226C8024811C082C08390190E744CF0B8
:103EC300A37418F0A37450F0A37418F0A3745CF0F7
:103ED300A37418F0901A9674CCF0A3742CF0901875
:103EE300F87452F0A37424F09018917488F0A374BA
:103EF30024F0901893748EF0A37424F09018F3E0D8
:103F03004402024315C082C083EAFCEBFD7903023D
:103F1300501CC082C083790802618FC082C0837441
:103F2300FE120BBB9018997436F0A37425F0901809
:103F33009B7430F0A37425F080077A867B18123FB8
:103F43007A90188612507070F19018881250706031
:103F5300097A887B18123F7A80EF901886E4F0A3E1
:103F6300F090188CF0A3F0A3F09018A77472F0A34C
:103F73007425F07402801C12139685218285228396
:103F8300EAF0A3EB123F8E12264422F0AA21AB22C1
:103F9300227411120AED02481174F61205AFE9FFFB
:103FA300743829F582E43430F583E493FEFA7B0018
:103FB30012136CEA4B6007EA2E123FEA80267A025C
:103FC3007B0012136CEA4B6017740C2FF582E434F8
:103FD30030F583E4938A828B83F0A3741A1243B37C
:103FE3007A007B0002600F1248E0E8125F89A3A306
:103FF300A3A3E4F022E9FC740629F8EAA2E0501E28
:10400300E875F00A84E5F0F96014740A28C399F896
:10401300E9C394054004740A28F8740B28F8ECC328
:1040230094134004791480027906E829790024095D
:10403300F85001097A0A7B0012045FE8F9020AD5F5
:10404300C082C0839018F3E05402600A121B04E993
:104053006004790180027900024811C082C0839014
:1040630018F3E05402601490188CE0700A12506D3B
:1040730060091240835004790180027900024811DB
:104083001230C6A2E722C082C0839084EEE0F8908B
:10409300188EE0C398500512136C80047A007B00DD
:1040A300024811C082C0831226447900024811C01D
:1040B30082C08374FE120BBB852182852283EAF0C2
:1040C300A3EB12421CA3A3A3A3A3E0600A146057AB
:1040D30024FE605A02418C9005E1E0640F601212E5
:1040E300261AE9700C124697901895124769120721
:1040F300EA900609E0C0E0852182852283124F9071
:10410300D0E012421C74141259ADFCA3E0FD7A886E
:104113007B18121390A8A8C2AF90188E1242407950
:104123002012260E023F761244EA741580D91244F7
:10413300EAA3A3A3A3E060511244EA12379EC0E0AE
:10414300852182852283E02406F582E43BF583D032
:10415300E01259AD2402F8A3E03400F98882F58314
:10416300E02401FAA3E03400FB88828983EAF0A308
:10417300EB1259AD12452A852182852283601312E1
:1041830041F160051242034048AA21AB22122644A2
:1041930080921241F160F21242035021124210FA4E
:1041A300852182852283A3E0C824061244E6F8749D
:1041B3004D1251A53430F583E4936A60148521824E
:1041C3008522831241F1640870BF124210640870A3
:1041D300B812421014124224240AC0E085218285B9
:1041E3002283124769D0E01242240402410A124199
:1041F300F5221246ECC82406F582E438F583E02262
:104203008521828522831241F5C3940A2285218266
:104213008522831234C1A3E02212422EF5838882C1
:104223002212422EC8240612451422F085218285CB
:1042330022831246EC22A8A8C2AF90188DE004F0A6
:10424300E8A2E792AF22C082C08390189D125070FB
:1042530060081244F11207EA8002790002481174DF
:10426300F71205AFEAFEEBFFEA1236877401124834
:104273009FF8A3E0F91232691248F1EA2435124B90
:10428300EEC0E0EA2413F582E43FF583D0E0F0EAE0
:104293002436124BEEC0E0EA2414F582E43FF583A2
:1042A300D0E0F0EA2438124BEEC0E0EA2418F5829D
:1042B300E43FF583D0E0F0EA242FF582E43FF58371
:1042C300120958125E69EA2431124BEEF91236686C
:1042D300120AEDE9F5087007EEFAEFFB12254EA975
:1042E30008024CFCC082C08312261AE960047920BC
:1042F30080027901024811C082C083EA241112436B
:104303000BD2E0800DEA240DF582E43BF583E02235
:10431300F0A3F0024811C082C08312430864017005
:10432300111243AD400C8A828B83A3E0F912261449
:10433300806612439EA2E650128A828B83A3E0F921
:104343009018971247691207EA804D1243086401D7
:10435300700D1243AD50088A828B83743080368A85
:10436300828B83A3E0641B8A828B83700474228014
:1043730024A3E0700D124308F874171251A53430CA
:10438300800B124308F8740C1251A53430F583E402
:10439300938A828B831243B30248111243A222EA07
:1043A3002410F582E43BF583E0221243A2A2E32228
:1043B300F09018EEE0F91213782274F71205AFE9C2
:1043C300FE12506D70030244E3EE6014741B6E70B2
:1043D3001AE812597939F583E0640570030244BB86
:1043E3009018901244F1A3E40244C274E96E706819
:1043F300E82412F582E439F583E0700B121B0AE915
:104403006005124534606179EE12111A90188F120B
:10441300450B90188F603A12453790188F700B1226
:10442300450B14F01212DC0244E3124529C2E712D1
:1044330046D2240D1244E664037009124504124661
:1044430088D2E2F079ED12111A12451C1207EA80A4
:10445300781244F774E9806774E16E703E121B0AA8
:10446300E960551245347050900603E0C0E01245F0
:10447300042412F582E438F583D0E0F09005F2E0ED
:10448300C0E090188F124500124500D0E0F090056F
:10449300F2E004F079011212C48045741C6E7018A6
:1044A30090188F12469D90189F1247691207EA9041
:1044B300188FE4F0A3F0802890188F1244F7EEF0E1
:1044C30090188F12469D12253C1246B3E05480602B
:1044D3000312617E90188FE4F0A3F0791012260E78
:1044E300024CFC12451422852182852283A3E0F528
:1044F300838882221244FB22124771A322124FBEE9
:104503002290188F124F9F22124F9F24121245148C
:1045130022F582E438F583E02290188F1246A190A9
:10452300189312476D22E0F8A3E0C8241012451433
:104533002290188F1246BAE054042274F41205AF85
:10454300750A00750B00A2AFE433FEC2AF12506DC3
:1045530060030246311247661207EAE94410F890F5
:104563001886800985080A85090B12467B12468F37
:104573007003024631123788586870E8780A120BC4
:104583002BAC08AD0912388D120AED90188FE5088F
:10459300F0A3E5091246D2124688A2E75003024669
:1045A3003890188DE014F0EEA2E092AF90188FE0EF
:1045B300240EF8A3E03400F9E8FEE9FF8882F583CE
:1045C30012469D90188F124216F9122500E9901891
:1045D3008A125D0C8E828F83E0548060181245042A
:1045E30024131244E6F91211D4124504241412447C
:1045F300E6F91211C81246B3A3E05401605F9018A4
:104603008A12507060451246C960401246C9F87953
:104613000090188A12469D120467E8C0E01246A76C
:10462300D0E01246D7C3941340117402800FEEA258
:10463300E092AF803790188C0245A77400C0E090D9
:104643001890E0C8124672D0E0800D1246A774019C
:104653001246D21246727401F07903800C90188FBF
:10466300124529A2E1B3E433F91212C40230FB2448
:104673001AF582E438F58322E50824FBF582E5097F
:1046830034FFF58322125993124517221230D7E5CE
:10469300084509228521828522831246A122E0FA58
:1046A300A3E0FB22124F9C2419F582E438F5832200
:1046B30090188F1246BA221246ECC81246C2221232
:1046C30051B338F58322124F9C2418124514221239
:1046D30046E4C8221246E4F5838882A3A3A3A3E099
:1046E30022F090188F1246EC22E0F8A3E02274F730
:1046F3001205AFEAFEEBFF12263E124BEBA2E3409C
:104703000A123B2270059084EC80039084EDE0F95B
:10471300EEFCEFFD7A867B181213A8E96038EEFAF7
:10472300EFFB9018991247691207EAEE240E124B19
:10473300EE54047012124239EE12326AA3E05401AD
:10474300701E1225488019EEFAEFFB90189112475C
:10475300691207EA800A8E828F83A374F112477A63
:10476300024CFC90189B12476D2212477122E0F80D
:10477300A3E0F58388822212478112253C22F0EEC2
:10478300FAEFFB2202480A74F71205AFEAFEEBFFC9
:1047930079009018F3E05402700CEA2433124BEEC4
:1047A3005404600279E89018F3E05460700CEA2432
:1047B30033124BEE5402600279E88A828B83A3A3FF
:1047C300A3A3E0F89084F2E0C398500279E8EA24C6
:1047D30031124BEE700CEA242E124BEE700479F575
:1047E300800BE9700512252AE9F9E96007EEFAEF73
:1047F300FB122614024CFCC082C0838A828B837412
:104803000DF0121AFE8007C082C083122548D083A0
:10481300D082020AD574F41205AFEAFEEBFF8A8256
:10482300F583E4F0A312489F54049084EC7012E0E3
:10483300F890188DE0C398401279F11226140230D3
:10484300FBE0F890188CE0C39850EE1248A5A3E063
:1048530054016037EA2437124BEEC394054033EA20
:104863002433124BEE540570297AA17B1812274684
:10487300EE2437F582E43FF5831230AC7808120B4F
:10488300237AA17B18124899120AEDEEFA12529676
:1048930080AC79E880A512273A740422F01248A567
:1048A300E022EA2433F582E43FF5832274F612050D
:1048B300AFE9FE2451FAE43400FB12136CEA4B60B7
:1048C30015EE8A828B83A3A3A3A3F0EA2451124893
:1048D300E01248F180047A007B0002600FF8E43BA9
:1048E300F98A828B83A3A32212665F90196BE8F087
:1048F300A3E9F02202480AC082C0839018AA749CDC
:10490300F0A37425F0A374CCF0A37425F0A374A2D0
:10491300F0A37425F0A374A8F0A37425F0A374C6C0
:10492300F0A37425F0A374BAF0A37425F0A374B4B0
:10493300F0A37425F0A374D2F0A37425F0A374D864
:10494300F0A37425F0A374DEF0A37425F0A374EA36
:10495300F0A37425F0A374AEF0A37425F0A37496AA
:10496300F0A37425F0A37490F0A37425F09018C6F7
:1049730074C0F0A37425F0A374E4F0A37425F0A32A
:1049830074FEF0A37426F0A374F0F0A37425F0A3CF
:1049930074F6F0A37425F09018EAE4F09018EDF0A3
:1049A3009018D61249B77402F09018DF1249B77401
:1049B30001024315740EF0A37426F0A32274F512BA
:1049C30005AF74F1120BBB8521828522837402F03B
:1049D3007401120E19E9F060047AFF7BFF7402126E
:1049E3000E191254547508E2750918750A007808EF
:1049F300120B277C0B7D007407120E19AA82AB835E
:104A0300124A27120AEDAA21AB22121AFE740F8052
:104A130003124A27120AED7F030208897C0B7D00EB
:104A23007AE27B1812134E74032274F71205AF74E3
:104A3300FD120BBB852182852283740AF074011257
:104A43000E19E9F07402120E19EA1260CE023AA5A9
:104A530074F61205AF74F7120BBBEAFEEBFFEA1212
:104A63004AA5124AD57402F0EA2428FCE43FFDAAC1
:104A730021AB22121504EE2431124AAB2433125A0D
:104A8300CD120B2B7402120B9B79831A1A12366602
:104A9300120AEDE9F5087007EEFAEFFB12254E0254
:104AA300600812326E740122F582E43FF5831230FE
:104AB300D7124F75F583124AC3E8F0A3E9F0EE224B
:104AC300124ACB8A828B8322E024FFF8A3E034FFCF
:104AD300F922F0A3E4F0EA1236872274F01205AF4C
:104AE30012653D120DA47808790C1204C0780812DF
:104AF3000B237AD97B180230DF74F41205AF74C626
:104B0300120BBB9005E1E0640F600D8521828522C5
:104B130083742E12547380227AD07B1812311D12A3
:104B2300046788088909E4F50AF50B7808120B2352
:104B33007AD07B18124899120AED743A0230F8744D
:104B4300F51205AFEAFEEBFF8A82F583A3E0F87066
:104B530078EA2430124BEE64026007E064036002DB
:104B630078E8EA2426F582E43FF5831231164004FF
:104B730078E88058E87052EA2426123D56EE243134
:104B8300124BE02430124BEE6402700EEE24281216
:104B930066559005F01248F180179005F074FEF009
:104BA300A304F0EE2428FCE43FFD7AE77B0512150D
:104BB30010EE241B123EA5120B27124A1F120AEDF8
:104BC300EEFAEFFB12258AE9F8E8600EE88E828F91
:104BD30083A3125E717417125F1B024A1AFAE43F31
:104BE300FB7950121198EE22EE2410F582E43FF582
:104BF30083E02274F61205AF74F7120BBB9018ED25
:104C0300E070377401F0F912128EAA21AB2212263A
:104C1300507508E27509187808120B2B7508017591
:104C230009007808120B2B9005F612095874061226
:104C33000B9B7A0312310C120AED02600A74F7120D
:104C430005AF124E1C7004A374EBF09018EDE0A2B4
:104C5300E25003C2E2F0E0A2E15005124E2D8009BA
:104C63008E828F83742A125F1B024CFC74F412052C
:104C7300AF74FE120BBB124D22124F68EC852182DA
:104C8300852283124FB7E0F50B7015AA21AB227969
:104C930053121198EE2413FAE43FFB794A12119848
:104CA300123EA2120B27124A1F120AED124697A9AF
:104CB3000B12257E9018EDE0A2E15003124E3490C2
:104CC30018EDE4F074020230F874F71205AFEAFE4F
:104CD300EBFF8A82F583A374EBF09018EDE0A2E179
:104CE30050077A0079EB122584EEFAEFFB1225BA0E
:104CF3008007EEFAEFFB1226BC7F0102088974F7E6
:104D03001205AF124D229018EAE4F09018EDF07AF4
:104D1300FF7BFF8E828F83A3E0F912257E80DA1258
:104D23004E6D7AD97B181227462274F71205AFEA23
:104D3300FEEBFF1225B480BA74F71205AF124EAA28
:104D4300A3A3A3E060047400800274EB124D7B50B4
:104D530003C2E2F0E0A2E15005124E7E8011A2E010
:104D6300500D8E828F83742AF0A374EB125F1BEEB7
:104D7300FAEFFB12256080818E828F83A3F0901857
:104D8300EDE0A2E22274F61205AFEAFEEBFF901803
:104D9300EDE0D2E1F0790112128E8E828F83A3E0CF
:104DA3007038122656E9FAEE240DF508E43FF509AA
:104DB3007808120B2B7508017509007808120B2B64
:104DC300124DEE120958EE2402FCE43FFD12310CA1
:104DD300120AEDE98E828F83A3F08E828F83A3E084
:104DE30060067A00F912258402600FEE240BF58227
:104DF300E43FF5832274F71205AF124E1C7004A32F
:104E030074EBF09018EDE0A2E25003C2E2F0E0A2EE
:104E1300E15003124E2D024CFCEAFEEBFF79011226
:104E230012948E828F83E0642022C2E1F0124E340A
:104E3300227A008E828F83A3E0F91225842274F7ED
:104E43001205AF124E6D8E828F83A3A3A3A3E060DE
:104E5300047400800274EB124D7B5003C2E2F0E055
:104E6300A2E15003124E7E024D72EAFEEBFF79017E
:104E73001212947AD07B1812274622C2E112639F42
:104E8300E0A2E4E433FA124E362274F71205AF12AD
:104E93004EAA74EB124D805003C2E2F0E0A2E1503F
:104EA30003124E2D024CFCEAFEEBFF790112129421
:104EB3008E828F83A32274F71205AF124ECF024C5A
:104EC300F574F71205AF124ECF024CFCEAFEEBFF6E
:104ED3007AD07B18122746EEFAEFFB1225DE2274F6
:104EE300F71205AF74EF120BBBEAFEEBFFEA125E9B
:104EF3005D7AE77B051214FEE960568521828522DF
:104F0300837409F07401120E1974EFF0124F687470
:104F130002120E19EC124FB7A3A3E0C0E0740412FF
:104F23000E19D0E0124FA4640870158E828F83A3EC
:104F3300A3124F90E0C0E07405120E19D0E0800672
:104F43007405120E19E4125CF97406120E19124F4D
:104F5300597411023AA7AA82AB83122686AA21ABFF
:104F630022121AFE22124F75F583124F87FCA3E01B
:104F7300F922EE124F7DFB8882222402F8E43FF9E6
:104F8300E8FAE9221246EC8882F583E022124F9F69
:104F93002407F582E438F5832290188F1246ECC873
:104FA30022124FA822124FADE022F08E828F83A3EC
:104FB300A3A3A322125F89124FBE22124FC222E083
:104FC300F8A3E0F5838882A3A322C082C0831226BC
:104FD300C8024811C082C08390190A74AAF0A3744E
:104FE30018F0A374C6F0A37418F0901A90742EF0FE
:104FF300A3742DF0A3746AF0A3742CF09018F674C4
:1050030078F0A37425F09018F3E04401024315C02F
:1050130082C083EAFCEBFD790212262C024811744C
:10502300F61205AF74FE120BBB9018EF12507060AE
:10503300077AEF7B181226449018F5E4F0900C9C45
:1050430012507060208007AA21AB221226449018C8
:10505300EEE0F91213848B09A90985218285228345
:10506300123CC870E2740202600C90188F12665FE3
:10507300E8492274F71205AFE9FA7B009018EEE0D5
:10508300F91213AE024CFC74F71205AF74F0120B55
:10509300BBEAFCEBFDE9FE8A828B83E0F8744312E2
:1050A30051A53430F583E493C0E07401120E19D096
:1050B300E0F0640B700DE98A828B83A3F01226AAB9
:1050C3000251A0E070030251A0640C6003025191ED
:1050D300741A6E700B7404120E19E4F0A30251904B
:1050E3007404120E19125454EA243212595DC0E0AA
:1050F3007403120E19D0E012638A120E02740612A0
:105103000E19120DDE8C828D83A3A3A3A3A3A3A3E5
:10511300A3A312665B740A120E19E8F0A3E91251F5
:10512300AAE054106009852182852283E48013EC70
:10513300241212595DF8900603E0C39885218285F5
:105143002283F0E0C0E0740C120E19D0E0F0EC24DE
:105153001512595DC0E0740D120E19D0E0F0EC2465
:105163001612595DC0E0740E120E19D0E0F0EC2453
:105173001712595DC0E0740F120E19D0E01251AA34
:10518300A3E0540160087401120E197411F0740243
:10519300120E19EEF07401120B93121AFE74100220
:1051A3003AA728F582E422F0EC1251B33DF58322AD
:1051B300240EF582E422C082C0839018F5E06403D4
:1051C300700479018002790002481174F71205AF67
:1051D3009018F5E0125249748E28F582741A39F545
:1051E300831256DBC2E7F0125250A3E493FE25E08C
:1051F300FCE433FD748E2CF582741A3D125A67EC6D
:105203004D6005EE9018F5F08A828B83E025E0FC73
:10521300E433FDE82CF582E93DF583E493FCC454C3
:105223000F25E0F874041251A53419F58312507058
:105233007005122698800CEC540F125250124769D5
:105243001207EA024CFC25E0F8E433F92225E0FCDE
:10525300E82CF582E439F5832274F21205AF74FE6B
:10526300120BBB890B8A088B091252FB1252EC609A
:105273001A125D06F50A7808120B27125308240246
:10528300125A5D120AED125294800312531A023617
:10529300F7AA0CEFFB9018EEE0F91213782274F0E2
:1052A3001205AF74FE120BBB890B8A0E8B0F1252C1
:1052B300FBF5081252EC6027125D06A808EA2812D3
:1052C3003FEA850E08850F09F50A7808120B2712A5
:1052D3005308125A5B120AED125294790080051298
:1052E300531A791A74020230E4FA7B0012136C8A9F
:1052F3000C8B0DAF0DEA4F22742D29F582E4343067
:10530300F583E49322A80B74221251A53430F5835C
:10531300E493FC7D00EA22852182852283E50BF05C
:10532300791AAA21AB2212261422C082C083E990E3
:1053330018EE02431574F61205AF74FE120BBBEAA6
:10534300FEEBFFEA542070308039A8A8C2AF901852
:105353008EE0141242428A828B831254419018F1D8
:10536300125454122620852182852283E06415601D
:10537300077AF17B181226447A887B18121396EA6F
:105383004B70C7EF5480700C80169018F1EAF0A3AD
:10539300EB1254679018EEE0F9121384EA4B70EAAB
:1053A300EE5410600B852182852283742D12547371
:1053B300EEA2E0500B85218285228374241254735C
:1053C300EE5402600B852182852283742512547367
:1053D300EE5404600B852182852283742612547354
:1053E300EE5408600B85218285228374281254733E
:1053F300EE5440600D7401120E1912545A742C129B
:105403005473EE5480600D7401120E1912545A74C1
:105413002F1254739018EF125070601BA8A8C2AFDC
:105423009018EF12469D9018EFE4F0A3124242A3A6
:10543300EAF0A3E91254677A007B00025068125421
:105443004522E0852182852283F022A3A3A3A3A37F
:10545300A3EAF0A3EBF022E412545F22F085218249
:1054630085228322F01226207AF17B181226442209
:10547300123F8E12262022C082C0839018F1126040
:10548300C9687002EB6970079018F1E4F0A3F002A9
:10549300481174F71205AFEAFEEBFFEA4F700312EF
:1054A3000FF4A2AFE433F508C2AF8E828F8312509C
:1054B300706028E824FBFAE934FFFB9018F1125AD4
:1054C30069E86C7002E96D70079018F1E4F0A3F0DD
:1054D3008E828F83E4F0A3F0121420023913C0826A
:1054E300C083901918748CF0A37426F0A3749EF0F3
:1054F300A37426F0A374A4F0A37426F0A3745AF043
:10550300A37425F0A374AAF0A37426F0A37454F033
:10551300A37425F0A37460F0A37425F09019267486
:10552300DAF0A37426F0A374B0F0A37426F0A37486
:10553300B6F0A37426F0A374C2F0A37426F0A37488
:10554300BCF0A37426F0901917E4024315C082C07F
:10555300839005F0E064FE7003A3E0F470097CE738
:105563007D05121504801C8A828B83A3A3A3A3A3A6
:10557300A3A3A37402F09005F012665B8A828B8367
:105583001248F1024811C082C0839005FAC3E09427
:10559300FEA3E094FF4004790380027902024811DC
:1055A300C082C0831256E48C828D83125699687030
:1055B30039740268701C8A828B831255F2E068701A
:1055C300298A828B83A31255F2A3E068701C7901A8
:1055D300801A7403687013EC2405FC50010DEA244F
:1055E30005FA50010B12150A80027900024811A333
:1055F300A3A3A3A3E0F88C828D83A3A3A3A3A322D5
:1056030074F61205AF7E00740A120E19E012568D5D
:10561300FF8A828B83A3A3A3A3A3A3A3A3E06F7097
:105623006474026F704E8A828B83C082C0838882C7
:105633008983A3A3A3A3A3E0F50888828983A3A3F3
:10564300A3A3A3A3E0FBAA08D083D082E06A7003DC
:10565300A3E06B703088828983A3A3A3E0FA8882D6
:105663008983A3A3A3A3E0F9EA6C7002E96D701523
:105673007E01801174036F700CE82405FCE439FD8E
:1056830012150AE9FEEEF902600FF8A3E0F9888229
:10569300F58312569922A3E01313543F540322C0F7
:1056A30082C0838A828B83A3A3A3A3A3A3A3A3E020
:1056B300640270169005F01256DB687003A3E0696C
:1056C30070047901800F7900800BEAFCEBFD7AE727
:1056D3007B051214FE02481112665F8A828B83E0F7
:1056E300228A828B83125699F82274F01205AF74C2
:1056F300FC120BBBE9852182852283F07402120E12
:1057030019ECF0A3EDF08A0A8B0B750800740212F2
:105713000E19E0240812595DC0E07401120E19D06D
:10572300E01259ADA2E75008750EFF750FFF800A0E
:105733009005F6E0F50EA3E0F50F8521828522831F
:10574300E0C2E71259B25420600712597F740880EF
:105753000412597FE41259B25404600712598A742F
:1057630080800512598A74101259B25410600612BF
:105773005965E4800B900603E0C0E0125965D0E060
:105783001259B2A2E0500375082054086006741041
:105793004508F5088A828B83A3A3E024FFFEA3E0D8
:1057A30034FFFFEA125970C39402E0400F640B60A8
:1057B30009E0148E828F831259A374034508F508F8
:1057C300750900900616E0640170118A828B83A329
:1057D300A3A3A3E0C39467400375091085218285C1
:1057E3002283E0F50C750D00740E780C120CB0E5F5
:1057F3000D4509F509E06402701B9005FBE08E82FC
:105803008F83F09005FAE0C0E012366ED0E0F0EE40
:1058130024FEFE801CE06403701DEE24F9FEEF34C9
:10582300FFFF7C0A7D06EEFAEFFB121510EE24FF54
:105833001EEF34FFFF8003E0602F7401120E19E0A6
:1058430060187414120E19E0650E7004A3E0650F5E
:10585300700874404508F508800F8E828F83E50F2A
:10586300F012366EE50E1259997401120E19E0F515
:105873000C750D00740A780C120CB0E50D4509F592
:1058830009E0640270237402120E191260C48E823E
:105893008F83F07402120E191237A0C0E012366E15
:1058A300D0E0F0EE24FEFE8020E064037021EE24BD
:1058B300F9FEEF34FFFF7402120E19125A69EEFA61
:1058C300EFFB121510EE24FF1EEF34FFFF8003E001
:1058D300601C7414120E19A3E08E828F83F074146B
:1058E300120E19E0C0E012366ED0E0125999EEF8AC
:1058F300EFF9E824FF1EE934FFFFE50A125970703F
:10590300059005E680039005F2E0FA04F0EA888248
:105913008983125E71E5091259A38E82F583E50826
:10592300F0E50A2404F8E4350BF9E50A2402FAE465
:10593300350BFBEEFC8A828B83E0F5088882898332
:10594300E02508C39C125F8CEEF0A3EFF0850A827A
:10595300850B83A3E4F0F90230E2F582E43DF5839D
:10596300E022EA2412F582E4350BF58322125979F9
:10597300350BF583E022240DF582E422EA2410F5A9
:1059830082E4350BF58322EA125993350BF5832212
:105993002411F582E422F0EE24FEFEEF34FFFF2211
:1059A300F0EE24FF1EEF34FFFF2212545FE022F0DB
:1059B300EA1251B3350BF583E02274F11205AF748B
:1059C300FE120BBB852182852283ECF0A3EDF089C7
:1059D3000B8A0E750A1A7415120E191268EE122428
:1059E300FA8A0C8B0DAE0CAF0DEA4F605A7413128A
:1059F3000E191260C9125AC8F0A3E9124AD8E50B6E
:105A0300F0750A007808120B277C0B7D00EA125A06
:105A13005B120AED7411120E191209587402120E58
:105A230019125A69A90E123664120AEDE9F50A70C1
:105A330016E50B24F960031470061238A6D2E5F0BC
:105A4300EEFAEFFB12254EA90A7402120AED7F0744
:105A53000208897C0B7D00EE241BFAE43FFB121342
:105A63004E740322F583E0FCA3E0FD2274F61205D5
:105A7300AF74F7120BBBEAFEEBFF7801EA24321294
:105A83004BEE60027805EA125AC8124AD574041222
:105A93005E64AA21AB22121504EE242F124AAB2412
:105AA30031125ACD120B2B7402120B9B79031A1A63
:105AB300123666120AEDE9F5087007EEFAEFFB12EB
:105AC300254E02600812326EE822F582E43F12325C
:105AD30061124FA804F078082274F21205AF8A0805
:105AE3008B09ECFEEDFF8A828B837405F0EC125E6A
:105AF300FD126251F0EA2403F50AE43509F50B853A
:105B03000A82F583E0F50CA3E0F50DEC2425F5827C
:105B1300E43FF583120E02E50C125993350DF5831C
:105B2300120DDEEC125E5DAA0CAB0D121504850A94
:105B330082850B8312696E125CC2125CE512544EAD
